:100000000C9434000C9451000C9451000C94510049
:100010000C9451000C9451000C9451000C9451001C
:100020000C9451000C9451000C9451000C9451000C
:100030000C9451000C9451000C94F9010C94510053
:100040000C9451000C9451000C9451000C945100EC
:100050000C9451000C9426020C9451000C94510005
:100060000C9451000C94510011241FBECFEFD8E026
:10007000DEBFCDBF11E0A0E0B1E0E6EFFFE002C0DF
:1000800005900D92AA30B107D9F721E0AAE0B1E0BE
:1000900001C01D92A231B207E1F70E94FF000C944B
:1000A000F9070C94000087B18E7F87B988B1816011
:1000B00088B987B18D7F87B988B1826088B987B1E7
:1000C0008B7F87B988B1846088B984B1816084B935
:1000D00084B1826084B984B1846084B984B1886059
:1000E00084B984B1806184B984B1806284B984B1F7
:1000F000806484B98AB181608AB98AB182608AB920
:100100008AB184608AB98AB188608AB98AB180610B
:100110008AB98AB180628AB98AB180648AB91BB807
:1001200015B8089584B58E7F84BD84B5826084BD82
:1001300085B5877F85BD81E687BDEEE6F0E08081ED
:1001400082608083089516BC85B5816085BD85B5C4
:100150008D7F85BD85B5846085BD089585B58E7F0D
:1001600085BD85B58D7F85BD85B58B7F85BD0895A2
:10017000ECE7F0E080818F778083808180648083EA
:100180008081806280838081877F8083808184609A
:10019000808380818D7F808380818E7F8083EAE76A
:1001A000F0E08081806280838081886080838081AC
:1001B0008E7F808380818260808380818460808361
:1001C0000895EAE7F0E080818068808383EC99E01D
:1001D0000197F1F700C0000080818064808308955A
:1001E000EAE7F0E080818F77808383EC99E00197E4
:1001F000F1F700C0000080818F7B80830895F89420
:100200000E9453000E9492000E94B80078941092BD
:100210000D0110920F0110920E0110921101109217
:10022000100180910D018130C1F138F0823009F464
:100230006EC0833009F4BCC0F4CF309B0FC08091F6
:100240000E0190910F01892BC9F40E94A30081E057
:1002500090E090930F0180930E0110C081E0809395
:100260000D010E94AE0010920F0110920E018FE45A
:1002700093EC0197F1F700C00000D3CFE0910C019F
:10028000F0E0E050FF4F808185B9E0910B01F0E094
:10029000E050FF4F80818BB9C4CF309B1FC0319994
:1002A00027C080910B018F5F80930B0180910B0120
:1002B0008A3039F480910C018F5F80930C01109289
:1002C0000B0180910C018A3011F410920C018FE423
:1002D00093EC0197F1F700C000000AC082E0809320
:1002E0000D018FE493EC0197F1F700C0000099CF66
:1002F000E0910C01F0E0E050FF4F808185B9E09182
:100300000B01F0E0E050FF4F80818BB98ACF309B2A
:1003100036C032993EC080910B01815080930B0111
:1003200080910B01811109C080910C018150809353
:100330000C0189E080930B010CC080910B018B3084
:1003400040F080910C01815080930C0189E08093F2
:100350000B0180910C01811104C089E080930C0194
:1003600007C080910C018B3018F089E080930C015C
:100370008FE493EC0197F1F700C000000AC083E01E
:1003800080930D018FE493EC0197F1F700C000001A
:1003900048CFE0910C01F0E0E050FF4F808185B93B
:1003A000E0910B01F0E0E050FF4F80818BB939CF35
:1003B000309B10C08091100190911101892B09F0A0
:1003C00030CF0E94E10081E090E090931101809392
:1003D000100127CF10920D010E94F0001092110120
:1003E000109210018FE493EC0197F1F700C0000028
:1003F00018CF1F920F920FB60F9211248F938091F6
:100400000A018F5F80930A0180910A018230C1F452
:1004100080910B018F5F80930B0110920A018091F4
:100420000B018A3039F480910C018F5F80930C01AD
:1004300010920B0180910C018A3011F410920C0182
:100440008F910F900FBE0F901F9018951F920F92D3
:100450000FB60F9211248F93EF93FF93E9E7F0E02B
:1004600080818081833038F4E0E0F1E0808185B9DB
:1004700080818BB9B6C580917900833058F0809126
:100480007900853038F4E0E0F1E0808185B9818140
:100490008BB9A7C580917900853058F0809179009B
:1004A000883038F4E0E0F1E0808185B982818BB951
:1004B00098C580917900883058F0809179008A3011
:1004C00038F4E0E0F1E0808185B983818BB989C59A
:1004D000809179008A3058F0809179008D3038F41D
:1004E000E0E0F1E0808185B984818BB97AC58091A3
:1004F00079008D3058F0809179008F3038F4E0E049
:10050000F1E0808185B985818BB96BC580917900D7
:100510008F3058F080917900823138F4E0E0F1E0DA
:10052000808185B986818BB95CC5809179008231E3
:1005300058F080917900853138F4E0E0F1E0808175
:1005400085B987818BB94DC580917900853158F087
:1005500080917900873138F4E0E0F1E0808185B95D
:1005600080858BB93EC580917900873158F08091A4
:1005700079008A3138F4E0E0F1E0808185B9818545
:100580008BB92FC5809179008A3158F0809179001C
:100590008C3138F4E0E0F1E0818185B980818BB95C
:1005A00020C5809179008C3148F0809179008F319D
:1005B00028F48091010185B98BB913C58091790028
:1005C0008F3158F080917900813238F4E0E0F1E029
:1005D000818185B982818BB904C58091790081328E
:1005E00058F080917900843238F4E0E0F1E08181C4
:1005F00085B983818BB9F5C480917900843258F034
:1006000080917900873238F4E0E0F1E0818185B9AA
:1006100084818BB9E6C480917900873258F080914B
:100620007900893238F4E0E0F1E0818185B9858193
:100630008BB9D7C480917900893258F080917900C4
:100640008C3238F4E0E0F1E0818185B986818BB9A4
:10065000C8C4809179008C3258F0809179008E3234
:1006600038F4E0E0F1E0818185B987818BB9B9C4C4
:10067000809179008E3258F080917900813338F47E
:10068000E0E0F1E0818185B980858BB9AAC48091D1
:100690007900813358F080917900843338F4E0E0B8
:1006A000F1E0818185B981858BB99BC48091790006
:1006B000843358F080917900863338F4E0E0F1E03B
:1006C000828185B980818BB98CC480917900863311
:1006D00058F080917900893338F4E0E0F1E08281CC
:1006E00085B981818BB97DC480917900893348F0C7
:1006F000809179008B3328F48091020185B98BB900
:1007000070C4809179008B3358F0809179008E33DA
:1007100038F4E0E0F1E0828185B983818BB961C46E
:10072000809179008D3358F080917900803438F4CD
:10073000E0E0F1E0828185B984818BB952C4809177
:100740007900803458F080917900833438F4E0E007
:10075000F1E0828185B985818BB943C480917900AC
:10076000833458F080917900863438F4E0E0F1E089
:10077000828185B986818BB934C4809179008634B1
:1007800058F080917900883438F4E0E0F1E082811B
:1007900085B987818BB925C480917900883458F058
:1007A000809179008B3438F4E0E0F1E0828185B902
:1007B00080858BB916C4809179008B3458F0809174
:1007C00079008D3438F4E0E0F1E0828185B98185EB
:1007D0008BB907C4809179008D3458F080917900ED
:1007E000803538F4E0E0F1E0838185B980818BB910
:1007F000F8C380917900803558F080917900823576
:1008000038F4E0E0F1E0838185B981818BB9E9C3F7
:1008100080917900823558F080917900853538F4DF
:10082000E0E0F1E0838185B982818BB9DAC3809100
:100830007900853548F080917900883528F48091D9
:10084000030185B98BB9CDC380917900883558F003
:10085000809179008A3538F4E0E0F1E0838185B950
:1008600084818BB9BEC3809179008A3558F080911C
:1008700079008D3538F4E0E0F1E0838185B9858138
:100880008BB9AFC3809179008D3558F08091790094
:100890008F3538F4E0E0F1E0838185B986818BB94A
:1008A000A0C3809179008F3558F08091790082360D
:1008B00038F4E0E0F1E0838185B987818BB991C399
:1008C00080917900823658F080917900843638F42E
:1008D000E0E0F1E0838185B980858BB982C38091A6
:1008E0007900843658F080917900873638F4E0E05A
:1008F000F1E0838185B981858BB973C380917900DB
:10090000873658F0809179008A3638F4E0E0F1E0DB
:10091000848185B980818BB964C3809179008A36DE
:1009200058F0809179008C3638F4E0E0F1E0848171
:1009300085B981818BB955C3809179008C3658F087
:10094000809179008F3638F4E0E0F1E0848185B958
:1009500082818BB946C3809179008F3658F080919F
:100960007900813738F4E0E0F1E0848185B9838152
:100970008BB937C380917900813748F08091790035
:10098000843728F48091040185B98BB92AC38091FA
:100990007900843758F080917900863738F4E0E0A8
:1009A000F1E0848185B985818BB91BC38091790081
:1009B000863758F080917900893738F4E0E0F1E02B
:1009C000848185B986818BB90CC380917900893780
:1009D00058F0809179008C3738F4E0E0F1E08481C0
:1009E00085B987818BB9FDC2809179008C3758F029
:1009F000809179008E3738F4E0E0F1E0848185B9A8
:100A000080858BB9EEC2809179008E3758F0809145
:100A10007900813838F4E0E0F1E0848185B981859E
:100A20008BB9DFC280917900813858F080917900CC
:100A3000833838F4E0E0F1E0858185B980818BB9B5
:100A4000D0C280917900833858F08091790086383F
:100A500038F4E0E0F1E0858185B981818BB9C1C2CC
:100A600080917900863858F080917900893838F47F
:100A7000E0E0F1E0858185B982818BB9B2C28091D5
:100A80007900893858F0809179008B3838F4E0E0AB
:100A9000F1E0858185B983818BB9A3C2809179000A
:100AA0008B3858F0809179008E3838F4E0E0F1E02E
:100AB000858185B984818BB994C2809179008E3803
:100AC00048F080917900803928F48091050185B93A
:100AD0008BB987C280917900803958F08091790074
:100AE000833938F4E0E0F1E0858185B986818BB9FE
:100AF00078C280917900833958F0809179008539E6
:100B000038F4E0E0F1E0858185B987818BB969C26D
:100B100080917900853958F080917900883938F4CE
:100B2000E0E0F1E0858185B980858BB95AC280917A
:100B30007900883958F0809179008B3938F4E0E0F9
:100B4000F1E0858185B981858BB94BC280917900AF
:100B50008B3958F0809179008D3938F4E0E0F1E07C
:100B6000868185B980818BB93CC2809179008D39AD
:100B700058F080917900803A38F4E0E0F1E0868125
:100B800085B981818BB92DC280917900803A58F066
:100B900080917900823A38F4E0E0F1E0868185B90D
:100BA00082818BB91EC280917900823A58F080917F
:100BB0007900853A38F4E0E0F1E0868185B98381F7
:100BC0008BB90FC280917900853A58F080917900F5
:100BD000873A38F4E0E0F1E0868185B984818BB909
:100BE00000C280917900873A58F0809179008A3A62
:100BF00038F4E0E0F1E0868185B985818BB9F1C1F7
:100C0000809179008A3A48F0809179008D3A28F4F1
:100C10008091060185B98BB9E4C1809179008D3A44
:100C200058F0809179008F3A38F4E0E0F1E0868165
:100C300085B987818BB9D5C1809179008F3A58F0F9
:100C400080917900823B38F4E0E0F1E0868185B95B
:100C500080858BB9C6C180917900823B58F0809124
:100C60007900843B38F4E0E0F1E0868185B9818544
:100C70008BB9B7C180917900843B58F0809179009D
:100C8000873B38F4E0E0F1E0878185B980818BB95A
:100C9000A8C180917900873B58F080917900893B09
:100CA00038F4E0E0F1E0878185B981818BB999C1A1
:100CB00080917900893B58F0809179008C3B38F421
:100CC000E0E0F1E0878185B982818BB98AC18091AA
:100CD00079008C3B58F0809179008F3B38F4E0E04C
:100CE000F1E0878185B983818BB97BC180917900DF
:100CF0008F3B58F080917900813C38F4E0E0F1E0DE
:100D0000878185B984818BB96CC180917900813CE0
:100D100058F080917900843C38F4E0E0F1E087817C
:100D200085B985818BB95DC180917900843C58F08B
:100D300080917900863C38F4E0E0F1E0878185B964
:100D400086818BB94EC180917900863C48F08091B4
:100D50007900893C28F48091070185B98BB941C19C
:100D600080917900893C58F0809179008B3C38F46F
:100D7000E0E0F1E0878185B980858BB932C180914F
:100D800079008B3C58F0809179008E3C38F4E0E09B
:100D9000F1E0878185B981858BB923C18091790084
:100DA0008E3C58F080917900813D38F4E0E0F1E02C
:100DB000808585B980818BB914C180917900813D8E
:100DC00058F080917900833D38F4E0E0F1E08085CF
:100DD00085B981818BB905C180917900833D58F037
:100DE00080917900863D38F4E0E0F1E0808585B9B6
:100DF00082818BB9F6C080917900863D58F0809150
:100E00007900883D38F4E0E0F1E0808585B98381A0
:100E10008BB9E7C080917900883D58F080917900C6
:100E20008B3D38F4E0E0F1E0808585B984818BB9B1
:100E3000D8C0809179008B3D58F0809179008E3D2B
:100E400038F4E0E0F1E0808585B985818BB9C9C0CF
:100E5000809179008E3D58F080917900803E38F481
:100E6000E0E0F1E0808585B986818BB9BAC08091D8
:100E70007900803E58F080917900833E38F4E0E0BC
:100E8000F1E0808585B987818BB9ABC0809179000D
:100E9000833E48F080917900853E28F480910801D6
:100EA00085B98BB99EC080917900853E58F08091BC
:100EB0007900883E38F4E0E0F1E0808585B98185ED
:100EC0008BB98FC080917900883E58F0809179006D
:100ED0008A3E38F4E0E0F1E0818585B980818BB904
:100EE00080C0809179008A3E58F0809179008D3ED3
:100EF00038F4E0E0F1E0818585B981818BB971C07A
:100F0000809179008D3E58F080917900803F38F4CF
:100F1000E0E0F1E0818585B982818BB962C0809182
:100F20007900803F58F080917900823F38F4E0E00A
:100F3000F1E0818585B983818BB953C080917900B7
:100F4000823F58F080917900853F38F4E0E0F1E08D
:100F5000818585B984818BB944C080917900853FB2
:100F600058F080917900873F38F4E0E0F1E0818526
:100F700085B985818BB935C080917900873F58F05C
:100F8000809179008A3F38F4E0E0F1E0818585B90D
:100F900086818BB926C0809179008A3F58F0809174
:100FA00079008C3F38F4E0E0F1E0818585B98781F4
:100FB0008BB917C0809179008C3F58F080917900EF
:100FC0008F3F39F0E0E0F1E0818585B980858BB90C
:100FD00008C0809179008F3F21F48091090185B983
:100FE0008BB9FF91EF918F910F900FBE0F901F90D3
:060FF0001895F894FFCFF4
:0A0FF6003F065B4F666D7D477F6785
:00000001FF
