S01000004C43594D505F50362E73726563AA
S11300000C9434000C949F000C94B6000C94510092
S11300100C9451000C9451000C9451000C94510018
S11300200C9451000C9451000C9451000C94510008
S11300300C9451000C9451000C9451000C945100F8
S11300400C9451000C9451000C9451000C945100E8
S11300500C9451000C9451000C9451000C945100D8
S11300600C9451000C94510011241FBECFEFD8E022
S1130070DEBFCDBF11E0A0E0B1E0E0EAF1E002C0F4
S113008005900D92AA30B107D9F721E0AAE0B1E0BA
S113009001C01D92AB30B207E1F70E948B000C94B3
S11300A0CE000C9400008AB18B7F8AB98BB1846036
S11300B08BB98AB1877F8AB98BB188608BB984B1D7
S11300C0816084B984B1826084B984B1846084B964
S11300D084B1886084B984B1806184B984B1806258
S11300E084B984B1806484B915B80895E9E6F0E070
S11300F080818E7F808380818D7F80838DB38160BA
S11301008DBB80818B7F80838081877F80838DB34B
S113011082608DBB0895F8940E9453000E9476007B
S11301207894E0910A01F0E0E050FF4F808185B9B6
S113013080910A018A30A9F710920A01F2CF1F9226
S11301400F920FB60F9211248F9380910A018F5F43
S113015080930A0180910A018A3011F410920A01F5
S11301608F910F900FBE0F901F9018951F920F92B2
S11301700FB60F9211248F9380910A01811103C04D
S11301808AE080930A0180910A01815080930A01D8
S11301908F910F900FBE0F901F901895F894FFCF7A
S10D01A03F065B4F666D7D477F67E5
S9030000FC
