S01100004C43594D43505F50322E737265636A
S11300000C9434000C943E000C943E000C943E007E
S11300100C943E000C943E000C943E000C943E0064
S11300200C943E000C943E000C943E000C943E0054
S11300300C943E000C943E000C943E000C943E0044
S11300400C943E000C943E000C943E000C943E0034
S11300500C943E000C943E000C943E000C943E0024
S11300600C943E000C943E0011241FBECFEFD8E048
S1130070DEBFCDBF0E945B000C9495000C94000081
S1130080CF93DF9300D0CDB7DEB71A82198205C0B3
S113009089819A8101969A83898389819A8183309F
S11300A0994DB0F30F900F90DF91CF9108958FE7A2
S11300B08AB91BB808950E945700C1E0CBB90E94C9
S11300C04000D2E0DBB90E94400014E01BB90E945A
S11300D0400008E00BB90E9440006894FF24F4F843
S11300E0FBB80E9440006894EE24E5F8EBB80E9447
S11300F040006894DD24D6F8DBB80E944000DBB8E9
S11301000E944000EBB80E944000FBB80E944000EF
S11301100BB90E9440001BB90E944000DBB90E9449
S11101204000CBB90E944000C8CFF894FFCF36
S9030000FC
