S01000004C43594D505F50372E73726563A9
S11300000C9434000C9449000C9449000C9449005D
S11300100C9449000C9449000C9449000C94490038
S11300200C9449000C9449000C9449000C94490028
S11300300C9449000C9449000C9449000C94490018
S11300400C9449000C9449000C9449000C94490008
S11300500C9449000C94A3000C9449000C9449009E
S11300600C9449000C94490011241FBECFEFD8E032
S1130070DEBFCDBF11E0A0E0B1E0E8EAF1E002C0EC
S113008005900D92A430B107D9F70E949A000C9400
S1130090D2000C94000084B1816084B984B1826080
S11300A084B984B1846084B984B1886084B984B12A
S11300B0806184B984B1806284B984B1806484B974
S11300C015B80895ECE7F0E080818F778083808114
S11300D0806480838081806280838081877F808345
S11300E080818460808380818D7F808380818E7F06
S11300F08083EAE7F0E08081806280838081886089
S1130100808380818E7F80838081826080838081F0
S1130110846080830895EAE7F0E0808180688083CA
S113012083EC99E00197F1F700C0000080818064BE
S113013080830895F8940E944B000E946200789492
S11301400E948B00FFCF1F920F920FB60F921124C3
S11301508F93EF93FF93E9E7F0E08081808183330D
S113016020F48091000185B915C080917900833312
S113017040F080917900853620F48091010185B9A1
S113018009C080917900853628F0809179008091AA
S1130190020185B9FF91EF918F910F900FBE0F90DF
S10B01A01F901895F894FFCF9D
S10701A8386D760034
S9030000FC
