:100000000C9434000C943E000C943E000C943E0082
:100010000C943E000C943E000C943E000C943E0068
:100020000C943E000C943E000C943E000C943E0058
:100030000C943E000C943E000C943E000C943E0048
:100040000C943E000C943E000C943E000C943E0038
:100050000C943E000C943E000C943E000C943E0028
:100060000C943E000C943E0011241FBECFEFD8E04C
:10007000DEBFCDBF0E945F000C9487000C9400008F
:100080008AB18F778AB98BB180688BB98AB18E7F3C
:100090008AB98BB18E7F8BB984B1816084B984B108
:1000A000806184B987B1816087B985B18E7F85B958
:1000B00085B18F7E85B988B18E7F88B908950E94F9
:1000C00040004F9906C0489B04C085B1816085B946
:1000D00003C085B18E7F85B94F9B02C0489B04C089
:1000E00085B1806185B903C085B18F7E85B999B12D
:1000F000991F9927991F89B18170981721F088B1AC
:100100008E7F88B9DECF88B1816088B9DACFF89464
:02011000FFCF1F
:00000001FF
