S01000004C43594D505F50342E73726563AC
S11300000C9434000C9449000C9449000C9449005D
S11300100C9449000C9449000C9449000C94490038
S11300200C9449000C9449000C9449000C94490028
S11300300C9449000C9449000C9449000C94490018
S11300400C9449000C9449000C9449000C94490008
S11300500C9449000C9449000C9449000C944900F8
S11300600C9449000C94490011241FBECFEFD8E032
S1130070DEBFCDBF11E0A0E0B1E0E8E0F1E002C0F6
S113008005900D92A031B107D9F70E9468000C9435
S113009082000C94000084B18E7F84B985B18160A4
S11300A085B98AB181608AB98AB182608AB98AB114
S11300B084608AB98AB188608AB98AB180618AB950
S11300C08AB180628AB98AB180648AB91BB80895FA
S11300D00E944B0080E001C080E0E82FF0E0E05097
S11300E0FF4F90819BB92FE936E891E021503040D1
S11300F09040E1F700C00000189BEFCF8F3060F70D
S10B01008F5FEBCFF894FFCFF1
S11301083F065B4F666D7D477F67777C395E797103
S9030000FC
