:100000000C9434000C943E000C943E000C943E0082
:100010000C943E000C943E000C943E000C943E0068
:100020000C943E000C943E000C943E000C943E0058
:100030000C943E000C943E000C943E000C943E0048
:100040000C943E000C943E000C943E000C943E0038
:100050000C943E000C943E000C943E000C943E0028
:100060000C943E000C943E0011241FBECFEFD8E04C
:10007000DEBFCDBF0E9448000C944F000C940000DE
:1000800081E084B987B98AB915B818B81BB8089542
:100090000E94400081E085B988B98BB9FBCFF89404
:0200A000FFCF90
:00000001FF
