S01000004C43594D505F50352E73726563AB
S11300000C9434000C9451000C9451000C94510045
S11300100C9451000C9451000C9451000C94510018
S11300200C9451000C9451000C9451000C94E20077
S11300300C9451000C9451000C94D0000C94510079
S11300400C9451000C9451000C9451000C945100E8
S11300500C9451000C9451000C9451000C945100D8
S11300600C9451000C94510011241FBECFEFD8E022
S1130070DEBFCDBF11E0A0E0B1E0E0E0F2E002C0FD
S113008005900D92AA30B107D9F721E0AAE0B1E0BA
S113009001C01D92AC30B207E1F70E94B6000C9487
S11300A0FE000C9400008AB181608AB98AB1826032
S11300B08AB98AB184608AB98AB188608AB98AB1F6
S11300C080618AB98AB180628AB98AB180648AB946
S11300D084B1816084B915B81BB8089584B58E7F46
S11300E084BD84B5826084BD85B5877F85BD81E686
S11300F087BDEEE6F0E0808182608083089516BCBF
S113010085B5816085BD85B58D7F85BD85B58460E8
S113011085BD0895E0E8F0E080818E7F8083808152
S11301208D7F8083E1E8F0E0808188608083808136
S11301308F7E808388EE91E090938900809388007D
S1130140EFE6F0E08081826080830895109285005C
S113015010928400E1E8F0E08081816080838081F6
S11301608D7F80838081846080830895F8940E94C9
S113017053000E946E000E948A0078940E947F00BF
S11301800E94A600E0910B01F0E0E050FF4F808157
S11301908BB980910B018A30A9F710920B01F2CF31
S11301A01F920F920FB60F9211248F939F9395B1C4
S11301B081E0892785B99F918F910F900FBE0F9091
S11301C01F9018951F920F920FB60F9211248F93C0
S11301D080910A018F5F80930A0180910A01823025
S11301E039F480910B018F5F80930B0110920A0107
S11301F08F910F900FBE0F901F901895F894FFCF1A
S10D02003F065B4F666D7D477F6784
S9030000FC
