:100000000C9475000C9487000C9487000C94870066
:100010000C9487000C9487000C9487000C94870044
:100020000C9487000C9487000C9487000C94870034
:100030000C9487000C9487000C9487000C94870024
:100040000C9487000C9487000C9487000C94870014
:100050000C9487000C9487000C9487000C94870004
:100060000C9487000C94870007634236B79BD8A78F
:100070001A39685618AEBAAB558C1D3CB7CC5763CD
:10008000BD6DEDFD753EF6177231BF000000803F7B
:1000900008000000BE922449123EABAAAA2ABECD97
:1000A000CCCC4C3E00000080BEABAAAAAA3E000009
:1000B0000000BF000000803F000000000008417801
:1000C000D3BB4387D1133D190E3CC3BD4282AD2B38
:1000D0003E68EC8276BED98FE1A93E4C80EFFFBE30
:1000E00001C4FF7F3F000000000011241FBECFEFBE
:1000F000D8E0DEBFCDBF21E0A0E0B1E001C01D929D
:10010000A130B207E1F70E94C2010C946A050C9479
:10011000000084B18E7F84B985B1816085B98AB1D0
:1001200081608AB98AB182608AB98AB184608AB9E9
:100130008AB188608AB98AB180618AB98AB18062DD
:100140008AB98AB180648AB98AB180688AB91BB8D1
:10015000089580E090E02AC0189B17C0109200011B
:1001600021E030E0092E02C0220F331F0A94E2F78B
:100170002BB92FE936E841E0215030404040E1F70B
:1001800000C00000873080F40DC081E08093000142
:100190008FE996E821E0815090402040E1F700C0CF
:1001A000000008959F5F01C091508F5F8031A0F2E1
:1001B0000895189B19C081E0809300018FEF8BB9DF
:1001C0002FE986E891E0215080409040E1F700C09F
:1001D00000001BB82FE986E891E021508040904054
:1001E000E1F700C00000E5CF82E0809300012FE935
:1001F00086E891E0215080409040E1F700C0000087
:100200000895CF93DF93C0E0D0E048C0189B16C09C
:1002100082E0809300016D2F70E080E090E00E940A
:100220000B029B01AC0160E070E080E090E40E9472
:1002300071020E94DC01C93070F01FC083E080931E
:1002400000012FE986E891E0215080409040E1F7DD
:1002500000C0000026C08BB1682B6BB92FE38DE086
:1002600093E0215080409040E1F700C00000D8307A
:1002700011F4D15012C0DF5F10C08BB168236BB98D
:100280002FE38DE093E0215080409040E1F700C0E3
:100290000000D150CE3009F4D0E0CF5FC03108F477
:1002A000B5CFDF91CF910895FF920F931F93CF9316
:1002B000DF936894FF24F2F85BC0DF2DD695C0E091
:1002C00000E010E050C0189B06C083E0809300015E
:1002D000CD1738F10CC0109200012FE986E891E0AB
:1002E000215080409040E1F700C000003FC0B801BD
:1002F000012E000C880B990B0E940D029B01AC0192
:1003000060E070E080E090E40E9471020E94DC01F5
:10031000623009F461E08BB186238BB90150110979
:1003200021C0B801012E000C880B990B0E940D0210
:100330009B01AC0160E070E080E090E40E947102FB
:100340000E94DC018BB1682B6BB92C2F30E08D2F14
:1003500090E001972817390719F40150110902C0DC
:100360000F5F1F4FCF5FCF1508F4ADCFF394F39419
:1003700023E12F1508F0A1CFDF91CF911F910F91AD
:10038000FF9008950E948900109200018091000161
:10039000813049F028F0823049F0833051F0F6CFB7
:1003A0000E94A900F3CF0E94D900F0CF0E94010162
:1003B000EDCF0E945401EACF0E94500288F09F576F
:1003C00098F0B92F9927B751B0F0E1F0660F771F79
:1003D000881F991F1AF0BA95C9F714C0B13091F06F
:1003E0000E946A02B1E008950C946A02672F782F88
:1003F0008827B85F39F0B93FCCF386957795679534
:10040000B395D9F73EF490958095709561957F4F9F
:100410008F4F9F4F0895E89409C097FB3EF4909545
:100420008095709561957F4F8F4F9F4F9923A9F0CD
:10043000F92F96E9BB279395F6958795779567955C
:10044000B795F111F8CFFAF4BB0F11F460FF1BC0A0
:100450006F5F7F4F8F4F9F4F16C0882311F096E933
:1004600011C0772321F09EE8872F762F05C06623E1
:1004700071F096E8862F70E060E02AF09A95660F9A
:10048000771F881FDAF7880F9695879597F9089553
:1004900057FD9058440F551F59F05F3F71F0479535
:1004A000880F97FB991F61F09F3F79F0879508951A
:1004B000121613061406551FF2CF4695F1DF08C039
:1004C000161617061806991FF1CF86957105610556
:1004D00008940895E894BB2766277727CB0197F9FE
:1004E0000895FA01EE0FFF1F309621053105A1F1A5
:1004F0006115710561F48038BFE39B0749F1689489
:100500009038810561F08038BFEF9B0741F0992357
:100510004AF5FF3FE1053105210519F1E8940894FA
:10052000E795D901AA2329F4AB2FBE2FF85FD0F3AA
:1005300010C0FF5F70F4A695E0F7F73950F019F09E
:10054000FF3A38F49F779F930DD00F9007FC905897
:10055000089546F00C94010360E070E080E89FE3AA
:1005600008954FE79F775F934F933F932F930E9498
:1005700075032F913F914F915F910E94F1030C946D
:10058000C90229F416F00C94FB020C946A020C9434
:1005900001030E945002A8F39638A0F707F80F92C3
:1005A000E8942BE33AEA48EB5FE70E9407040F92D6
:1005B0000F920F924DB75EB70F920E94BD03E8E60F
:1005C000F0E00E9404034F915F91EF91FF91E59558
:1005D000EE1FFF1F49F0FE57E0684427EE0F441F4F
:1005E000FA95E1F74195550B0E9437030F9007FEEE
:1005F0000C942B03089597F99F6780E870E060E002
:1006000008959FEF80EC0895DF93CF931F930F938E
:10061000FF92EF92DF927B018C01689406C0DA2E84
:10062000EF010E940404FE01E894A5912591359103
:1006300045915591A6F3EF010E947604FE019701C2
:10064000A801DA9469F7DF90EF90FF900F911F9166
:10065000CF91DF9108959B01AC0160E070E080E8EC
:100660009FE30C94CB040C94FB020C943D050E9478
:100670005002D8F39923C9F3940F511DA3F391505D
:10068000504094F059F0882332F0660F771F881F8E
:1006900091505040C1F79E3F51052CF7880F911D96
:1006A0009695879597F908955F3FACF0983E9CF03A
:1006B000BB27869577956795B79508F4B1609395B4
:1006C000C1F7BB0F58F711F460FFE8CF6F5F7F4FA2
:1006D0008F4F9F4FE3CF0C946B0216F00C943D05A7
:1006E0000C94010368940C94FB020E945002A8F33E
:1006F0009923C1F3AEF3DF93CF931F930F93FF9230
:10070000C92FDD2788232AF02197660F771F881FBE
:10071000DAF720E030E040E85FEB9FE3883920F033
:10072000803E38F021968F770E945F04E0E9F0E088
:1007300004C00E945F04EDEBF0E00E9404038B0113
:10074000BE01EC01FB2E6F5771097595771F880B61
:10075000990B0E940D0228E132E741E35FE30E941A
:100760000404AF2D9801AE01FF900F911F91CF911E
:10077000DF910E9476040C945905FA01DC01AA0F5E
:10078000BB1F9B01AC01BF5728F422273327442706
:10079000507820C0B75190F4AB2F00244695379580
:1007A0002795011CA395D2F3002071F0220F331F6F
:1007B000441FB395DAF30ED00C945E0461307105DA
:1007C000A0E88A07B94630F49B01AC016627772779
:1007D00088279078309621F0208331834283538399
:1007E00008950E9404040C9459050E944B0538F0AA
:1007F0000E94520520F0952311F00C94FB020C94FA
:10080000010311240C946B020E94480270F3959F1F
:10081000C1F3950F50E0551F629FF001729FBB27F7
:10082000F00DB11D639FAA27F00DB11DAA1F649F93
:100830006627B00DA11D661F829F2227B00DA11D46
:10084000621F739FB00DA11D621F839FA00D611DCC
:10085000221F749F3327A00D611D231F849F600DED
:10086000211D822F762F6A2F11249F5750409AF016
:10087000F1F088234AF0EE0FFF1FBB1F661F771FA2
:10088000881F91505040A9F79E3F510580F00C946D
:10089000FB020C946B025F3FE4F3983ED4F3869521
:1008A00077956795B795F795E7959F5FC1F7FE2B0D
:1008B000880F911D9695879597F908955058BB27F5
:1008C000AA270E9476040C9459050E944B0538F023
:1008D0000E94520520F039F49F3F19F426F40C943D
:1008E00001030EF4E095E7FB0C94FB02E92F0E9454
:1008F000480258F3BA17620773078407950720F078
:1009000079F4A6F50C946A020EF4E0950B2EBA2F3A
:10091000A02D0B01B90190010C01CA01A001112405
:10092000FF27591B99F0593F50F4503E68F11A16B1
:10093000F040A22F232F342F4427585FF3CF469542
:1009400037952795A795F0405395C9F77EF41F1664
:10095000BA0B620B730B840BBAF09150A1F0FF0F2E
:10096000BB1F661F771F881FC2F70EC0BA0F621F1A
:10097000731F841F48F4879577956795B795F7950A
:100980009E3F08F0B0CF9395880F08F09927EE0F9F
:100990009795879508950E94DF040C9459050E944D
:1009A000520558F00E944B0540F029F45F3F29F0B2
:1009B0000C94FB0251110C946B020C9401030E94E5
:1009C000480268F39923B1F3552391F3951B550B16
:1009D000BB27AA2762177307840738F09F5F5F4F12
:1009E000220F331F441FAA1FA9F335D00E2E3AF051
:1009F000E0E832D091505040E695001CCAF72BD069
:100A0000FE2F29D0660F771F881FBB1F26173707B9
:100A10004807AB07B0E809F0BB0B802DBF01FF27EB
:100A200093585F4F3AF09E3F510578F00C94FB02CB
:100A30000C946B025F3FE4F3983ED4F38695779570
:100A40006795B795F7959F5FC9F7880F911D9695A4
:100A5000879597F90895E1E0660F771F881FBB1F00
:100A6000621773078407BA0720F0621B730B840BAD
:100A7000BA0BEE1F88F7E09508959F3F31F0915033
:100A800020F4879577956795B795880F911D969572
:100A9000879597F9089500240A94161617061806E4
:100AA0000906089500240A94121613061406050672
:100AB0000895092E0394000C11F4882352F0BB0F03
:100AC00040F4BF2B11F460FF04C06F5F7F4F8F4F66
:080AD0009F4F0895F894FFCF39
:00000001FF
