S011000043594D505F414655332E737265636C
S11300000C9434000C9451000C9451000C94510045
S11300100C9451000C9451000C9451000C94510018
S11300200C9451000C9451000C9451000C94510008
S11300300C9451000C9451000C94AB000C9451009E
S11300400C9451000C9451000C9451000C945100E8
S11300500C9451000C9451000C9451000C945100D8
S11300600C9451000C94510011241FBECFEFD8E022
S1130070DEBFCDBF11E0A0E0B1E0EAE9F1E002C0EB
S113008005900D92AC30B107D9F721E0ACE0B1E0B6
S113009001C01D92AE30B207E1F70E948C000C94AF
S11300A0CB000C9400008AB18E7F8AB98BB1816039
S11300B08BB984B1816084B984B1826084B984B11C
S11300C0846084B984B1886084B984B1806184B95E
S11300D084B1806284B984B1806484B915B8089508
S11300E084B58E7F84BD84B5826084BD85B5877FE9
S11300F085BD81E687BDEEE6F0E080818260808385
S1130100089516BC85B5816085BD85B58D7F85BD97
S113011085B5846085BD0895F8940E9453000E94BB
S1130120700078940E948100489904C085E080930F
S11301300A0103C08AE080930A01E0910D01F0E016
S1130140E050FF4F808185B980910D018A3061F7BD
S113015010920D01E9CF1F920F920FB60F92112446
S11301608F939F9380910C018F5F80930C019091EA
S11301700C0180910A01981307C080910D018F5FD3
S113018080930D0110920C019F918F910F900FBEDF
S10D01900F901F901895F894FFCF0C
S10F019A3F065B4F666D7D477F670A00DF
S9030000FC
